{
  "contractName": "FakeToken",
  "abi": [
    {
      "inputs": [],
      "stateMutability": "nonpayable",
      "type": "constructor"
    },
    {
      "anonymous": false,
      "inputs": [
        {
          "indexed": true,
          "internalType": "address",
          "name": "from",
          "type": "address"
        },
        {
          "indexed": true,
          "internalType": "address",
          "name": "to",
          "type": "address"
        },
        {
          "indexed": false,
          "internalType": "uint256",
          "name": "value",
          "type": "uint256"
        }
      ],
      "name": "Transfer",
      "type": "event"
    },
    {
      "inputs": [
        {
          "internalType": "address",
          "name": "to",
          "type": "address"
        },
        {
          "internalType": "uint8",
          "name": "amount",
          "type": "uint8"
        }
      ],
      "name": "transfer",
      "outputs": [
        {
          "internalType": "bool",
          "name": "",
          "type": "bool"
        }
      ],
      "stateMutability": "nonpayable",
      "type": "function"
    },
    {
      "inputs": [],
      "name": "name",
      "outputs": [
        {
          "internalType": "string",
          "name": "",
          "type": "string"
        }
      ],
      "stateMutability": "view",
      "type": "function"
    },
    {
      "inputs": [],
      "name": "symbol",
      "outputs": [
        {
          "internalType": "string",
          "name": "",
          "type": "string"
        }
      ],
      "stateMutability": "view",
      "type": "function"
    },
    {
      "inputs": [],
      "name": "totalSupply",
      "outputs": [
        {
          "internalType": "uint8",
          "name": "",
          "type": "uint8"
        }
      ],
      "stateMutability": "view",
      "type": "function"
    },
    {
      "inputs": [
        {
          "internalType": "address",
          "name": "account",
          "type": "address"
        }
      ],
      "name": "balanceOf",
      "outputs": [
        {
          "internalType": "uint256",
          "name": "",
          "type": "uint256"
        }
      ],
      "stateMutability": "view",
      "type": "function"
    }
  ],
  "bytecode": "0x60806040526040518060400160405280600a81526020017f46616b6520546f6b656e00000000000000000000000000000000000000000000815250600090805190602001906200005192919062000376565b506040518060400160405280600281526020017f4654000000000000000000000000000000000000000000000000000000000000815250600190805190602001906200009f92919062000376565b50348015620000ad57600080fd5b5033600260016101000a81548173ffffffffffffffffffffffffffffffffffffffff021916908373ffffffffffffffffffffffffffffffffffffffff160217905550600060c8905062000129600260019054906101000a900473ffffffffffffffffffffffffffffffffffffffff16826200013060201b60201c565b506200068a565b600073ffffffffffffffffffffffffffffffffffffffff168273ffffffffffffffffffffffffffffffffffffffff161415620001a3576040517f08c379a00000000000000000000000000000000000000000000000000000000081526004016200019a90620004ad565b60405180910390fd5b80600260008282829054906101000a900460ff16620001c391906200050b565b92506101000a81548160ff021916908360ff16021790555080600360008473ffffffffffffffffffffffffffffffffffffffff1673ffffffffffffffffffffffffffffffffffffffff16815260200190815260200160002060008282829054906101000a900460ff166200023891906200050b565b92506101000a81548160ff021916908360ff1602179055508060ff16600360008473ffffffffffffffffffffffffffffffffffffffff1673ffffffffffffffffffffffffffffffffffffffff16815260200190815260200160002060009054906101000a900460ff1660ff1610158015620002c857508060ff16600260009054906101000a900460ff1660ff1610155b6200030a576040517f08c379a0000000000000000000000000000000000000000000000000000000008152600401620003019062000599565b60405180910390fd5b8173ffffffffffffffffffffffffffffffffffffffff16600073ffffffffffffffffffffffffffffffffffffffff167fddf252ad1be2c89b69c2b068fc378daa952ba7f163c4a11628f55a4df523b3ef836040516200036a919062000608565b60405180910390a35050565b828054620003849062000654565b90600052602060002090601f016020900481019282620003a85760008555620003f4565b82601f10620003c357805160ff1916838001178555620003f4565b82800160010185558215620003f4579182015b82811115620003f3578251825591602001919060010190620003d6565b5b50905062000403919062000407565b5090565b5b808211156200042257600081600090555060010162000408565b5090565b600082825260208201905092915050565b7f52656365697069656e74206e6565647320746f20626520646966666572656e7460008201527f207a65726f206164647265737300000000000000000000000000000000000000602082015250565b600062000495602d8362000426565b9150620004a28262000437565b604082019050919050565b60006020820190508181036000830152620004c88162000486565b9050919050565b600060ff82169050919050565b7f4e487b7100000000000000000000000000000000000000000000000000000000600052601160045260246000fd5b60006200051882620004cf565b91506200052583620004cf565b92508260ff038211156200053e576200053d620004dc565b5b828201905092915050565b7f48617070656e6564206f766572666c6f77200000000000000000000000000000600082015250565b60006200058160128362000426565b91506200058e8262000549565b602082019050919050565b60006020820190508181036000830152620005b48162000572565b9050919050565b6000819050919050565b6000819050919050565b6000620005f0620005ea620005e484620004cf565b620005c5565b620005bb565b9050919050565b6200060281620005cf565b82525050565b60006020820190506200061f6000830184620005f7565b92915050565b7f4e487b7100000000000000000000000000000000000000000000000000000000600052602260045260246000fd5b600060028204905060018216806200066d57607f821691505b6020821081141562000684576200068362000625565b5b50919050565b61089a806200069a6000396000f3fe608060405234801561001057600080fd5b50600436106100575760003560e01c806306fdde031461005c57806318160ddd1461007a57806320e6e9211461009857806370a08231146100c857806395d89b41146100f8575b600080fd5b610064610116565b60405161007191906104e8565b60405180910390f35b6100826101a8565b60405161008f9190610526565b60405180910390f35b6100b260048036038101906100ad91906105d0565b6101bf565b6040516100bf919061062b565b60405180910390f35b6100e260048036038101906100dd9190610646565b610364565b6040516100ef919061068c565b60405180910390f35b6101006103bd565b60405161010d91906104e8565b60405180910390f35b606060008054610125906106d6565b80601f0160208091040260200160405190810160405280929190818152602001828054610151906106d6565b801561019e5780601f106101735761010080835404028352916020019161019e565b820191906000526020600020905b81548152906001019060200180831161018157829003601f168201915b5050505050905090565b6000600260009054906101000a900460ff16905090565b60008160ff166101ce33610364565b101561020f576040517f08c379a000000000000000000000000000000000000000000000000000000000815260040161020690610754565b60405180910390fd5b81600360008573ffffffffffffffffffffffffffffffffffffffff1673ffffffffffffffffffffffffffffffffffffffff16815260200190815260200160002060008282829054906101000a900460ff1661026a91906107a3565b92506101000a81548160ff021916908360ff16021790555081600360003373ffffffffffffffffffffffffffffffffffffffff1673ffffffffffffffffffffffffffffffffffffffff16815260200190815260200160002060008282829054906101000a900460ff166102dd91906107da565b92506101000a81548160ff021916908360ff1602179055508273ffffffffffffffffffffffffffffffffffffffff163373ffffffffffffffffffffffffffffffffffffffff167fddf252ad1be2c89b69c2b068fc378daa952ba7f163c4a11628f55a4df523b3ef846040516103529190610849565b60405180910390a36001905092915050565b6000600360008373ffffffffffffffffffffffffffffffffffffffff1673ffffffffffffffffffffffffffffffffffffffff16815260200190815260200160002060009054906101000a900460ff1660ff169050919050565b6060600180546103cc906106d6565b80601f01602080910402602001604051908101604052809291908181526020018280546103f8906106d6565b80156104455780601f1061041a57610100808354040283529160200191610445565b820191906000526020600020905b81548152906001019060200180831161042857829003601f168201915b5050505050905090565b600081519050919050565b600082825260208201905092915050565b60005b8381101561048957808201518184015260208101905061046e565b83811115610498576000848401525b50505050565b6000601f19601f8301169050919050565b60006104ba8261044f565b6104c4818561045a565b93506104d481856020860161046b565b6104dd8161049e565b840191505092915050565b6000602082019050818103600083015261050281846104af565b905092915050565b600060ff82169050919050565b6105208161050a565b82525050565b600060208201905061053b6000830184610517565b92915050565b600080fd5b600073ffffffffffffffffffffffffffffffffffffffff82169050919050565b600061057182610546565b9050919050565b61058181610566565b811461058c57600080fd5b50565b60008135905061059e81610578565b92915050565b6105ad8161050a565b81146105b857600080fd5b50565b6000813590506105ca816105a4565b92915050565b600080604083850312156105e7576105e6610541565b5b60006105f58582860161058f565b9250506020610606858286016105bb565b9150509250929050565b60008115159050919050565b61062581610610565b82525050565b6000602082019050610640600083018461061c565b92915050565b60006020828403121561065c5761065b610541565b5b600061066a8482850161058f565b91505092915050565b6000819050919050565b61068681610673565b82525050565b60006020820190506106a1600083018461067d565b92915050565b7f4e487b7100000000000000000000000000000000000000000000000000000000600052602260045260246000fd5b600060028204905060018216806106ee57607f821691505b60208210811415610702576107016106a7565b5b50919050565b7f496e73756666696369656e742066756e64730000000000000000000000000000600082015250565b600061073e60128361045a565b915061074982610708565b602082019050919050565b6000602082019050818103600083015261076d81610731565b9050919050565b7f4e487b7100000000000000000000000000000000000000000000000000000000600052601160045260246000fd5b60006107ae8261050a565b91506107b98361050a565b92508260ff038211156107cf576107ce610774565b5b828201905092915050565b60006107e58261050a565b91506107f08361050a565b92508282101561080357610802610774565b5b828203905092915050565b6000819050919050565b600061083361082e6108298461050a565b61080e565b610673565b9050919050565b61084381610818565b82525050565b600060208201905061085e600083018461083a565b9291505056fea2646970667358221220570b941ba0eecbddc1f13f29527807a7a5fdfc73d2cef2715a319c75901cf11064736f6c634300080a0033",
  "immutableReferences": {},
  "source": "// SPDX-License-Identifier: MIT\r\npragma solidity ^0.8.10;\r\n\r\ncontract FakeToken {\r\n\r\n    string private _name = \"Fake Token\";\r\n\r\n    string private _symbol = \"FT\";\r\n\r\n    uint8 private _totalSupply;\r\n\r\n    address private _owner;\r\n\r\n    /**\r\n     * Save the amount of tokens that is corresponding the specific address.\r\n     */\r\n    mapping (address => uint8) private _balances;\r\n\r\n    event Transfer(address indexed from, address indexed to, uint value);\r\n\r\n    constructor() {\r\n        _owner = msg.sender;\r\n\r\n        uint8 capacity = 200;\r\n        _mint(_owner, capacity);\r\n    }\r\n\r\n    /**\r\n     * Move `amount` tokens from the caller's account to `to` account.\r\n     * \r\n     * Returns a boolean value indicating whether the operation succeeded.\r\n     * Emits a Transfer event.\r\n     */\r\n    function transfer(address to, uint8 amount) public returns (bool) {\r\n        require(balanceOf(msg.sender) >= amount, \"Insufficient funds\");\r\n\r\n        _balances[to] += amount;\r\n        _balances[msg.sender] -= amount;\r\n\r\n        emit Transfer(msg.sender, to, amount);\r\n        return true;\r\n    }\r\n\r\n    /**\r\n     * Mint the `amount` of tokens for the `to` account\r\n     *\r\n     * Emits a Transfer event.\r\n     */\r\n    function _mint(address to, uint8 amount) internal {\r\n        require(to != address(0), \"Receipient needs to be different zero address\");\r\n\r\n        _totalSupply += amount;\r\n        _balances[to] += amount;\r\n\r\n        // Overflow checks\r\n        require(_balances[to] >= amount && _totalSupply >= amount, \"Happened overflow \");\r\n\r\n        emit Transfer(address(0), to, amount);\r\n    }\r\n\r\n    function name() public view returns (string memory) {\r\n        return _name;\r\n    }\r\n\r\n    function symbol() public view returns (string memory) {\r\n        return _symbol;\r\n    }\r\n\r\n    function totalSupply() public view returns (uint8) {\r\n        return _totalSupply;\r\n    }\r\n\r\n    /**\r\n     * Return the amount of tokens of the specific account\r\n     */\r\n    function balanceOf(address account) public view returns (uint256) {\r\n        return _balances[account];\r\n    }\r\n\r\n}",
  "sourcePath": "E:\\OneDrive\\Visual Studio\\Github\\Git_ManhPD5\\fake-token\\contracts\\FakeToken.sol",
  "compiler": {
    "name": "solc",
    "version": "0.8.10+commit.fc410830.Emscripten.clang"
  },
  "schemaVersion": "3.4.3",
  "updatedAt": "2022-06-18T05:49:34.276Z",
  "devdoc": {
    "kind": "dev",
    "methods": {},
    "version": 1
  },
  "userdoc": {
    "kind": "user",
    "methods": {
      "balanceOf(address)": {
        "notice": "Return the amount of tokens of the specific account"
      },
      "transfer(address,uint8)": {
        "notice": "Move `amount` tokens from the caller's account to `to` account.  Returns a boolean value indicating whether the operation succeeded. Emits a Transfer event."
      }
    },
    "version": 1
  }
}