{
  "contractName": "FakeToken",
  "abi": [
    {
      "inputs": [],
      "stateMutability": "nonpayable",
      "type": "constructor"
    },
    {
      "anonymous": false,
      "inputs": [
        {
          "indexed": true,
          "internalType": "address",
          "name": "from",
          "type": "address"
        },
        {
          "indexed": true,
          "internalType": "address",
          "name": "to",
          "type": "address"
        },
        {
          "indexed": false,
          "internalType": "uint256",
          "name": "value",
          "type": "uint256"
        }
      ],
      "name": "Transfer",
      "type": "event"
    },
    {
      "inputs": [
        {
          "internalType": "address",
          "name": "to",
          "type": "address"
        },
        {
          "internalType": "uint8",
          "name": "amount",
          "type": "uint8"
        }
      ],
      "name": "transfer",
      "outputs": [
        {
          "internalType": "bool",
          "name": "",
          "type": "bool"
        }
      ],
      "stateMutability": "nonpayable",
      "type": "function"
    },
    {
      "inputs": [
        {
          "internalType": "address",
          "name": "to",
          "type": "address"
        },
        {
          "internalType": "uint8",
          "name": "amount",
          "type": "uint8"
        }
      ],
      "name": "mint",
      "outputs": [
        {
          "internalType": "bool",
          "name": "",
          "type": "bool"
        }
      ],
      "stateMutability": "nonpayable",
      "type": "function"
    },
    {
      "inputs": [],
      "name": "name",
      "outputs": [
        {
          "internalType": "string",
          "name": "",
          "type": "string"
        }
      ],
      "stateMutability": "view",
      "type": "function"
    },
    {
      "inputs": [],
      "name": "symbol",
      "outputs": [
        {
          "internalType": "string",
          "name": "",
          "type": "string"
        }
      ],
      "stateMutability": "view",
      "type": "function"
    },
    {
      "inputs": [],
      "name": "totalSupply",
      "outputs": [
        {
          "internalType": "uint8",
          "name": "",
          "type": "uint8"
        }
      ],
      "stateMutability": "view",
      "type": "function"
    },
    {
      "inputs": [
        {
          "internalType": "address",
          "name": "account",
          "type": "address"
        }
      ],
      "name": "balanceOf",
      "outputs": [
        {
          "internalType": "uint8",
          "name": "",
          "type": "uint8"
        }
      ],
      "stateMutability": "view",
      "type": "function"
    }
  ],
  "bytecode": "0x60806040526040518060400160405280600a81526020017f46616b6520546f6b656e00000000000000000000000000000000000000000000815250600090805190602001906200005192919062000412565b506040518060400160405280600281526020017f4654000000000000000000000000000000000000000000000000000000000000815250600190805190602001906200009f92919062000412565b50348015620000ad57600080fd5b5033600260016101000a81548173ffffffffffffffffffffffffffffffffffffffff021916908373ffffffffffffffffffffffffffffffffffffffff160217905550600060c8905062000129600260019054906101000a900473ffffffffffffffffffffffffffffffffffffffff16826200013160201b60201c565b5050620007be565b6000600260019054906101000a900473ffffffffffffffffffffffffffffffffffffffff1673ffffffffffffffffffffffffffffffffffffffff163373ffffffffffffffffffffffffffffffffffffffff1614620001c6576040517f08c379a0000000000000000000000000000000000000000000000000000000008152600401620001bd9062000549565b60405180910390fd5b600073ffffffffffffffffffffffffffffffffffffffff168373ffffffffffffffffffffffffffffffffffffffff16141562000239576040517f08c379a00000000000000000000000000000000000000000000000000000000081526004016200023090620005e1565b60405180910390fd5b81600260008282829054906101000a900460ff166200025991906200063f565b92506101000a81548160ff021916908360ff16021790555081600360008573ffffffffffffffffffffffffffffffffffffffff1673ffffffffffffffffffffffffffffffffffffffff16815260200190815260200160002060008282829054906101000a900460ff16620002ce91906200063f565b92506101000a81548160ff021916908360ff1602179055508160ff16600360008573ffffffffffffffffffffffffffffffffffffffff1673ffffffffffffffffffffffffffffffffffffffff16815260200190815260200160002060009054906101000a900460ff1660ff16101580156200035e57508160ff16600260009054906101000a900460ff1660ff1610155b620003a0576040517f08c379a00000000000000000000000000000000000000000000000000000000081526004016200039790620006cd565b60405180910390fd5b8273ffffffffffffffffffffffffffffffffffffffff16600073ffffffffffffffffffffffffffffffffffffffff167fddf252ad1be2c89b69c2b068fc378daa952ba7f163c4a11628f55a4df523b3ef846040516200040091906200073c565b60405180910390a36001905092915050565b828054620004209062000788565b90600052602060002090601f01602090048101928262000444576000855562000490565b82601f106200045f57805160ff191683800117855562000490565b8280016001018555821562000490579182015b828111156200048f57825182559160200191906001019062000472565b5b5090506200049f9190620004a3565b5090565b5b80821115620004be576000816000905550600101620004a4565b5090565b600082825260208201905092915050565b7f43616e206e6f74206d696e74206966206e6f7420636f6e7472616374206f776e60008201527f6572000000000000000000000000000000000000000000000000000000000000602082015250565b600062000531602283620004c2565b91506200053e82620004d3565b604082019050919050565b60006020820190508181036000830152620005648162000522565b9050919050565b7f52656365697069656e74206e6565647320746f20626520646966666572656e7460008201527f207a65726f206164647265737300000000000000000000000000000000000000602082015250565b6000620005c9602d83620004c2565b9150620005d6826200056b565b604082019050919050565b60006020820190508181036000830152620005fc81620005ba565b9050919050565b600060ff82169050919050565b7f4e487b7100000000000000000000000000000000000000000000000000000000600052601160045260246000fd5b60006200064c8262000603565b9150620006598362000603565b92508260ff0382111562000672576200067162000610565b5b828201905092915050565b7f48617070656e6564206f766572666c6f77000000000000000000000000000000600082015250565b6000620006b5601183620004c2565b9150620006c2826200067d565b602082019050919050565b60006020820190508181036000830152620006e881620006a6565b9050919050565b6000819050919050565b6000819050919050565b6000620007246200071e620007188462000603565b620006f9565b620006ef565b9050919050565b620007368162000703565b82525050565b60006020820190506200075360008301846200072b565b92915050565b7f4e487b7100000000000000000000000000000000000000000000000000000000600052602260045260246000fd5b60006002820490506001821680620007a157607f821691505b60208210811415620007b857620007b762000759565b5b50919050565b610d0c80620007ce6000396000f3fe608060405234801561001057600080fd5b50600436106100625760003560e01c806306fdde031461006757806318160ddd1461008557806320e6e921146100a3578063691562a0146100d357806370a082311461010357806395d89b4114610133575b600080fd5b61006f610151565b60405161007c91906107f4565b60405180910390f35b61008d6101e3565b60405161009a9190610832565b60405180910390f35b6100bd60048036038101906100b891906108dc565b6101fa565b6040516100ca9190610937565b60405180910390f35b6100ed60048036038101906100e891906108dc565b6103a2565b6040516100fa9190610937565b60405180910390f35b61011d60048036038101906101189190610952565b610673565b60405161012a9190610832565b60405180910390f35b61013b6106c9565b60405161014891906107f4565b60405180910390f35b606060008054610160906109ae565b80601f016020809104026020016040519081016040528092919081815260200182805461018c906109ae565b80156101d95780601f106101ae576101008083540402835291602001916101d9565b820191906000526020600020905b8154815290600101906020018083116101bc57829003601f168201915b5050505050905090565b6000600260009054906101000a900460ff16905090565b60008160ff1661020933610673565b60ff16101561024d576040517f08c379a000000000000000000000000000000000000000000000000000000000815260040161024490610a2c565b60405180910390fd5b81600360008573ffffffffffffffffffffffffffffffffffffffff1673ffffffffffffffffffffffffffffffffffffffff16815260200190815260200160002060008282829054906101000a900460ff166102a89190610a7b565b92506101000a81548160ff021916908360ff16021790555081600360003373ffffffffffffffffffffffffffffffffffffffff1673ffffffffffffffffffffffffffffffffffffffff16815260200190815260200160002060008282829054906101000a900460ff1661031b9190610ab2565b92506101000a81548160ff021916908360ff1602179055508273ffffffffffffffffffffffffffffffffffffffff163373ffffffffffffffffffffffffffffffffffffffff167fddf252ad1be2c89b69c2b068fc378daa952ba7f163c4a11628f55a4df523b3ef846040516103909190610b2b565b60405180910390a36001905092915050565b6000600260019054906101000a900473ffffffffffffffffffffffffffffffffffffffff1673ffffffffffffffffffffffffffffffffffffffff163373ffffffffffffffffffffffffffffffffffffffff1614610434576040517f08c379a000000000000000000000000000000000000000000000000000000000815260040161042b90610bb8565b60405180910390fd5b600073ffffffffffffffffffffffffffffffffffffffff168373ffffffffffffffffffffffffffffffffffffffff1614156104a4576040517f08c379a000000000000000000000000000000000000000000000000000000000815260040161049b90610c4a565b60405180910390fd5b81600260008282829054906101000a900460ff166104c29190610a7b565b92506101000a81548160ff021916908360ff16021790555081600360008573ffffffffffffffffffffffffffffffffffffffff1673ffffffffffffffffffffffffffffffffffffffff16815260200190815260200160002060008282829054906101000a900460ff166105359190610a7b565b92506101000a81548160ff021916908360ff1602179055508160ff16600360008573ffffffffffffffffffffffffffffffffffffffff1673ffffffffffffffffffffffffffffffffffffffff16815260200190815260200160002060009054906101000a900460ff1660ff16101580156105c457508160ff16600260009054906101000a900460ff1660ff1610155b610603576040517f08c379a00000000000000000000000000000000000000000000000000000000081526004016105fa90610cb6565b60405180910390fd5b8273ffffffffffffffffffffffffffffffffffffffff16600073ffffffffffffffffffffffffffffffffffffffff167fddf252ad1be2c89b69c2b068fc378daa952ba7f163c4a11628f55a4df523b3ef846040516106619190610b2b565b60405180910390a36001905092915050565b6000600360008373ffffffffffffffffffffffffffffffffffffffff1673ffffffffffffffffffffffffffffffffffffffff16815260200190815260200160002060009054906101000a900460ff169050919050565b6060600180546106d8906109ae565b80601f0160208091040260200160405190810160405280929190818152602001828054610704906109ae565b80156107515780601f1061072657610100808354040283529160200191610751565b820191906000526020600020905b81548152906001019060200180831161073457829003601f168201915b5050505050905090565b600081519050919050565b600082825260208201905092915050565b60005b8381101561079557808201518184015260208101905061077a565b838111156107a4576000848401525b50505050565b6000601f19601f8301169050919050565b60006107c68261075b565b6107d08185610766565b93506107e0818560208601610777565b6107e9816107aa565b840191505092915050565b6000602082019050818103600083015261080e81846107bb565b905092915050565b600060ff82169050919050565b61082c81610816565b82525050565b60006020820190506108476000830184610823565b92915050565b600080fd5b600073ffffffffffffffffffffffffffffffffffffffff82169050919050565b600061087d82610852565b9050919050565b61088d81610872565b811461089857600080fd5b50565b6000813590506108aa81610884565b92915050565b6108b981610816565b81146108c457600080fd5b50565b6000813590506108d6816108b0565b92915050565b600080604083850312156108f3576108f261084d565b5b60006109018582860161089b565b9250506020610912858286016108c7565b9150509250929050565b60008115159050919050565b6109318161091c565b82525050565b600060208201905061094c6000830184610928565b92915050565b6000602082840312156109685761096761084d565b5b60006109768482850161089b565b91505092915050565b7f4e487b7100000000000000000000000000000000000000000000000000000000600052602260045260246000fd5b600060028204905060018216806109c657607f821691505b602082108114156109da576109d961097f565b5b50919050565b7f496e73756666696369656e742066756e64730000000000000000000000000000600082015250565b6000610a16601283610766565b9150610a21826109e0565b602082019050919050565b60006020820190508181036000830152610a4581610a09565b9050919050565b7f4e487b7100000000000000000000000000000000000000000000000000000000600052601160045260246000fd5b6000610a8682610816565b9150610a9183610816565b92508260ff03821115610aa757610aa6610a4c565b5b828201905092915050565b6000610abd82610816565b9150610ac883610816565b925082821015610adb57610ada610a4c565b5b828203905092915050565b6000819050919050565b6000819050919050565b6000610b15610b10610b0b84610816565b610af0565b610ae6565b9050919050565b610b2581610afa565b82525050565b6000602082019050610b406000830184610b1c565b92915050565b7f43616e206e6f74206d696e74206966206e6f7420636f6e7472616374206f776e60008201527f6572000000000000000000000000000000000000000000000000000000000000602082015250565b6000610ba2602283610766565b9150610bad82610b46565b604082019050919050565b60006020820190508181036000830152610bd181610b95565b9050919050565b7f52656365697069656e74206e6565647320746f20626520646966666572656e7460008201527f207a65726f206164647265737300000000000000000000000000000000000000602082015250565b6000610c34602d83610766565b9150610c3f82610bd8565b604082019050919050565b60006020820190508181036000830152610c6381610c27565b9050919050565b7f48617070656e6564206f766572666c6f77000000000000000000000000000000600082015250565b6000610ca0601183610766565b9150610cab82610c6a565b602082019050919050565b60006020820190508181036000830152610ccf81610c93565b905091905056fea26469706673582212203ecaaa7ffb83845f9cd6ed0fa6935dd079624eebc2b68caa9d138587d92e582e64736f6c634300080a0033",
  "immutableReferences": {},
  "source": "// SPDX-License-Identifier: MIT\r\npragma solidity ^0.8.10;\r\n\r\ncontract FakeToken {\r\n\r\n    string private _name = \"Fake Token\";\r\n\r\n    string private _symbol = \"FT\";\r\n\r\n    uint8 private _totalSupply;\r\n\r\n    address private _owner;\r\n\r\n    /**\r\n     * Save the amount of tokens that is corresponding the specific address.\r\n     */\r\n    mapping (address => uint8) private _balances;\r\n\r\n    event Transfer(address indexed from, address indexed to, uint value);\r\n\r\n    /**\r\n     * Constructor for create a contract Fake Token\r\n     * Initialize the hard capacity of the Fake Token\r\n     */\r\n    constructor() {\r\n        _owner = msg.sender;\r\n\r\n        uint8 capacity = 200;\r\n        mint(_owner, capacity);\r\n    }\r\n\r\n    /**\r\n     * Move `amount` tokens from the caller's account to `to` account.\r\n     * \r\n     * Returns a boolean value indicating whether the operation succeeded.\r\n     * Emits a Transfer event.\r\n     */\r\n    function transfer(address to, uint8 amount) public returns (bool) {\r\n        require(balanceOf(msg.sender) >= amount, \"Insufficient funds\");\r\n\r\n        _balances[to] += amount;\r\n        _balances[msg.sender] -= amount;\r\n\r\n        emit Transfer(msg.sender, to, amount);\r\n        return true;\r\n    }\r\n\r\n    /**\r\n     * Mint the `amount` of tokens for the `to` account\r\n     *\r\n     * Emits a Transfer event.\r\n     */\r\n    function mint(address to, uint8 amount) public returns (bool) {\r\n        require(msg.sender == _owner, \"Can not mint if not contract owner\");\r\n        require(to != address(0), \"Receipient needs to be different zero address\");\r\n\r\n        _totalSupply += amount;\r\n        _balances[to] += amount;\r\n\r\n        // Overflow checks\r\n        require(_balances[to] >= amount && _totalSupply >= amount, \"Happened overflow\");\r\n\r\n        emit Transfer(address(0), to, amount);\r\n        return true;\r\n    }\r\n\r\n    function name() public view returns (string memory) {\r\n        return _name;\r\n    }\r\n\r\n    function symbol() public view returns (string memory) {\r\n        return _symbol;\r\n    }\r\n\r\n    function totalSupply() public view returns (uint8) {\r\n        return _totalSupply;\r\n    }\r\n\r\n    /**\r\n     * Return the amount of tokens of the specific account\r\n     */\r\n    function balanceOf(address account) public view returns (uint8) {\r\n        return _balances[account];\r\n    }\r\n\r\n}",
  "sourcePath": "E:\\OneDrive\\Visual Studio\\Github\\Git_ManhPD5\\fake-token\\contracts\\FakeToken.sol",
  "compiler": {
    "name": "solc",
    "version": "0.8.10+commit.fc410830.Emscripten.clang"
  },
  "schemaVersion": "3.4.3",
  "updatedAt": "2022-06-18T09:18:12.100Z",
  "devdoc": {
    "kind": "dev",
    "methods": {},
    "version": 1
  },
  "userdoc": {
    "kind": "user",
    "methods": {
      "balanceOf(address)": {
        "notice": "Return the amount of tokens of the specific account"
      },
      "constructor": {
        "notice": "Constructor for create a contract Fake Token Initialize the hard capacity of the Fake Token"
      },
      "mint(address,uint8)": {
        "notice": "Mint the `amount` of tokens for the `to` account Emits a Transfer event."
      },
      "transfer(address,uint8)": {
        "notice": "Move `amount` tokens from the caller's account to `to` account.  Returns a boolean value indicating whether the operation succeeded. Emits a Transfer event."
      }
    },
    "version": 1
  }
}